:020000040000fa
:080000000002040000000000f2
:020000040000fa
:040008000c040000e4
:020000040000fa
:04000c000c040000e0
:020000040000fa
:040010000c040000dc
:020000040000fa
:040014000c040000d8
:020000040000fa
:040018000c040000d4
:020000040000fa
:04001c000c040000d0
:020000040000fa
:040020000c040000cc
:020000040000fa
:040024000c040000c8
:020000040000fa
:040028000c040000c4
:020000040000fa
:04002c000c040000c0
:020000040000fa
:040030000c040000bc
:020000040000fa
:04003400cc020000fa
:020000040000fa
:040038000c040000b4
:020000040000fa
:04003c000c040000b0
:020000040000fa
:040040000c040000ac
:020000040000fa
:040044000c040000a8
:020000040000fa
:040048000c040000a4
:020000040000fa
:04004c000c040000a0
:020000040000fa
:040050000c0400009c
:020000040000fa
:040054000e03000097
:020000040000fa
:040058000c04000094
:020000040000fa
:04005c00620300003b
:020000040000fa
:040060000c0400008c
:020000040000fa
:040064000c04000088
:020000040000fa
:040068000c04000084
:020000040000fa
:04006c000c04000080
:020000040000fa
:040070000c0400007c
:020000040000fa
:040074000c04000078
:020000040000fa
:040078000c04000074
:020000040000fa
:04007c000c04000070
:020000040000fa
:040080000c0400006c
:020000040000fa
:040084000c04000068
:020000040000fa
:040088000c04000064
:020000040000fa
:04008c000c04000060
:020000040000fa
:040090000c0400005c
:020000040000fa
:040094000c04000058
:020000040000fa
:040098000c04000054
:020000040000fa
:04009c000c04000050
:020000040000fa
:0400a0000c0400004c
:020000040000fa
:0400a4000c04000048
:020000040000fa
:0400a8000c04000044
:020000040000fa
:0400ac000c04000040
:020000040000fa
:0400b0000c0400003c
:020000040000fa
:0400b4000c04000038
:020000040000fa
:0400b8000c04000034
:020000040000fa
:0400bc000c04000030
:020000040000fa
:0400c0000c0400002c
:020000040000fa
:0400c4000c04000028
:020000040000fa
:0400c8000c04000024
:020000040000fa
:0400cc000c04000020
:020000040000fa
:0400d0000c0400001c
:020000040000fa
:0400d4000c04000018
:020000040000fa
:0400d8000c04000014
:020000040000fa
:0400dc000c04000010
:020000040000fa
:0400e0000c0400000c
:020000040000fa
:0400e4000c04000008
:020000040000fa
:0400e8000c04000004
:020000040000fa
:0400ec000c04000000
:020000040000fa
:0400f0000c040000fc
:020000040000fa
:0400f4000c040000f8
:020000040000fa
:0400f8000c040000f4
:020000040000fa
:0400fc000c040000f0
:020000040000fa
:040100000c040000eb
:020000040000fa
:040104000c040000e7
:020000040000fa
:040108000c040000e3
:020000040000fa
:04010c000c040000df
:020000040000fa
:040110000c040000db
:020000040000fa
:040114000c040000d7
:020000040000fa
:040118000c040000d3
:020000040000fa
:04011c000c040000cf
:020000040000fa
:040120000c040000cb
:020000040000fa
:040124000c040000c7
:020000040000fa
:040128000c040000c3
:020000040000fa
:04012c000c040000bf
:020000040000fa
:040130000c040000bb
:020000040000fa
:040134000c040000b7
:020000040000fa
:040138000c040000b3
:020000040000fa
:04013c000c040000af
:020000040000fa
:040140000c040000ab
:020000040000fa
:040144000c040000a7
:020000040000fa
:040148000c040000a3
:020000040000fa
:04014c000c0400009f
:020000040000fa
:040150000c0400009b
:020000040000fa
:040154000c04000097
:020000040000fa
:040158000c04000093
:020000040000fa
:04015c000c0400008f
:020000040000fa
:040160000c0400008b
:020000040000fa
:040164000c04000087
:020000040000fa
:040168000c04000083
:020000040000fa
:040208000c040000e2
:020000040000fa
:04020c000c040000de
:020000040000fa
:040210000c040000da
:020000040000fa
:040214000c040000d6
:020000040000fa
:040218000c040000d2
:020000040000fa
:04021c000c040000ce
:020000040000fa
:040220000c040000ca
:020000040000fa
:040224000c040000c6
:020000040000fa
:040228000c040000c2
:020000040000fa
:04022c000c040000be
:020000040000fa
:040230000c040000ba
:020000040000fa
:040234000c040000b6
:020000040000fa
:040238000c040000b2
:020000040000fa
:04023c000c040000ae
:020000040000fa
:040240000c040000aa
:020000040000fa
:040244000c040000a6
:020000040000fa
:040248000c040000a2
:020000040000fa
:04024c000c0400009e
:020000040000fa
:040250000c0400009a
:020000040000fa
:040254000c04000096
:020000040000fa
:040258000c04000092
:020000040000fa
:04025c000c0400008e
:020000040000fa
:040260000c0400008a
:020000040000fa
:040264000c04000086
:020000040000fa
:040268000c04000082
:020000040000fa
:04026c000c0400007e
:020000040000fa
:040270000c0400007a
:020000040000fa
:040274000c04000076
:020000040000fa
:040278000c04000072
:020000040000fa
:04027c000c0400006e
:020000040000fa
:040280000c0400006a
:020000040000fa
:040284000c04000066
:020000040000fa
:040288000c04000062
:020000040000fa
:04028c000c0400005e
:020000040000fa
:040290000c0400005a
:020000040000fa
:040294000c04000056
:020000040000fa
:040298000c04000052
:020000040000fa
:04029c000c0400004e
:020000040000fa
:0402a0000c0400004a
:020000040000fa
:0402a4000c04000046
:020000040000fa
:0402a8000c04000042
:020000040000fa
:0402ac000c0400003e
:020000040000fa
:0402b0000c0400003a
:020000040000fa
:0402b4000c04000036
:020000040000fa
:0402b8000c04000032
:020000040000fa
:0402bc000c0400002e
:020000040000fa
:0402c0000c0400002a
:020000040000fa
:0402c4000c04000026
:020000040000fa
:0402c8000c04000022
:020000040000fa
:0402cc000c0400001e
:020000040000fa
:0402d0000c0400001a
:020000040000fa
:0402d4000c04000016
:020000040000fa
:0402d8000c04000012
:020000040000fa
:0402dc000c0400000e
:020000040000fa
:0402e0000c0400000a
:020000040000fa
:0402e4000c04000006
:020000040000fa
:0402e8000c04000002
:020000040000fa
:0402ec000c040000fe
:020000040000fa
:0402f0000c040000fa
:020000040000fa
:0402f4000c040000f6
:020000040000fa
:0402f8000c040000f2
:020000040000fa
:0402fc000c040000ee
:020000040000fa
:040300000c040000e9
:020000040000fa
:040304000c040000e5
:020000040000fa
:040308000c040000e1
:020000040000fa
:04030c000c040000dd
:020000040000fa
:040310000c040000d9
:020000040000fa
:040314000c040000d5
:020000040000fa
:040318000c040000d1
:020000040000fa
:04031c000c040000cd
:020000040000fa
:040320000c040000c9
:020000040000fa
:040324000c040000c5
:020000040000fa
:040328000c040000c1
:020000040000fa
:04032c000c040000bd
:020000040000fa
:040330000c040000b9
:020000040000fa
:040334000c040000b5
:020000040000fa
:040338000c040000b1
:020000040000fa
:04033c000c040000ad
:020000040000fa
:040340000c040000a9
:020000040000fa
:040344000c040000a5
:020000040000fa
:040348000c040000a1
:020000040000fa
:04034c000c0400009d
:020000040000fa
:040350000c04000099
:020000040000fa
:040354000c04000095
:020000040000fa
:040358000c04000091
:020000040000fa
:04035c000c0400008d
:020000040000fa
:040360000c04000089
:020000040000fa
:040364000c04000085
:020000040000fa
:040368000c04000081
:020000040000fa
:100400008f8720000eff20000e01880000000000f2
:10041000000020000000e000020032000001200087
:100420002002880014000700fd0007000000e00023
:1004300003003a00400521000100200002003700bf
:100440000000200001002000810f70000100320038
:1004500014000700000020000000e000020032004d
:1004600000000200000000008010020000000000f8
:100470000040da000000fe004440a9000000200017
:100480000000e0000300320000002000a00188000e
:100490004440a800000006008a1f78008b1f7800e7
:1004a0000000060091018800800478000000eb0045
:1004b0001a003700e284440032a0b4009905ba0063
:1004c000e284440032a0b4009906ba00e2844400f9
:1004d00032a0b4000006eb00476fde00fd07b2005b
:1004e000636ce10003003a00ebff07000000eb0043
:1004f0000a003700606ce10004003a00005deb0088
:100500008b05e900fdff3e00040037006168e10053
:10051000010032000086eb000b00070019c7ba008b
:100520001905ba000e04e00003003a000a00e000da
:10053000e0ff3a0000000600fe07b2009e018800be
:100540008a047800f5ff3700395dba008b05e900b1
:100550000c003200295dba008b05e900080032006a
:100560000c00e00003003a00e284440032a0b40032
:10057000f5ff370019ddba008b05e900faff3a00f4
:100580008904e800e184440032a0b40000000600c1
:100590000000000000000000809fbe003400f80052
:1005a00000002000a00188000000fa000021ef00f8
:1005b000004080000000e8000040880020408000eb
:1005c0000000e80020408800104080000000e800a3
:1005d000104088005dc8bf00e14f50000a003a009b
:1005e0000140800000532700808f50000600360035
:1005f00010c0b3005fe8b700d222a90000000000dd
:1006000094e0a9000028ef008460a9000080fa00af
:100610003400f9004f00be0000400600809fbe007d
:10062000821f78000200fa00200480004b00de00e8
:1006300061406000004f780062428000301180000d
:1006400080407800208520000000410001487800ab
:10065000604280000000e8006042880054c8bf008b
:100660000004e0000700320030c8bf000004e000d2
:1006700004003a0054c8bf0076e8b70010c0b300c9
:1006800030e8b7002185200091407800a0cab3006f
:1006900080cf500006003a0060428000e40f500016
:1006a000030036004c28ef0010c0b30044e8b70048
:1006b0008560a9000080fa004f0178004f00be005d
:1006c000004006003600f800809fbe00829fbe00fa
:1006d000849fbe00869fbe000000fa0000188000c4
:1006e000d041880070c8bf00e14f50001d003a00a3
:1006f00000188000d04188007068ef00c041800081
:10070000e3005000d0418000808f500007003e0081
:10071000c0418000e3004000d0418000808f500045
:100720000200390030c0b3003de8b700c04180008e
:10073000e3004000d0418000808f50000200310073
:1007400020c0b3003de8b700c0418000e300500086
:10075000d0418000808f50000200360010c0b300ee
:100760003de8b7003dc8bf000004e00012003200c1
:10077000d04180000000e0000f003200c041800046
:100780008000e900d0418000808f50000a003100d5
:10079000c04180008000e800d0418000808f500080
:1007a000050036003e00070010c0b3003ce8b7006b
:1007b0003d68ef003a28ef000018800000428800f2
:1007c0000142800010172000808f500003003e007f
:1007d00010c0b30042e8b7000600370001428000b5
:1007e000f03c2000808f50000200360010c0b300a3
:1007f00043e8b7000668ef0085a0a9000080fa0072
:100800004f03be004f02be004f01be004f00be00ae
:100810003600f900004006000040da000000fe004b
:0408200000000500cf
:020000040000fa
:100824000000fa0000000000cbc2a8000000000095
:1008340000000000d202a80000000000ca42a80084
:1008440000000000ca62a90000000000ca02a9005a
:1008540000000000ca22a9000000000010002000cf
:10086400fa0507000080fa00000006000000fa0004
:1008740010002000f5050700d222a80000000000a7
:1008840010002000f105070011e1a800e00120009c
:10089400ee0507000080fa00000006000000fa00e0
:1008a40010002000e9050700d222a9000000000082
:1008b40010002000e505070011e1a900e001200077
:1008c400e20507000080fa00000006000000fa00bc
:1008d40010002000dd050700d222a800000000005f
:1008e40011e1a80010002000d8050700ca22a800c2
:1008f40000000000e0012000d40507000080fa0099
:10090400000006000000fa0010002000cf050700d8
:10091400d222a8000000000010002000cb05070030
:1009240011e1a80010002000c8050700ca22a90090
:1009340000000000e0012000c40507000080fa0068
:10094400000006000000fa0010c0b30070e8b70011
:1009540001003700000000003dc8bf000004e000b3
:1009640005003a003cc8bf00e14f5000f9ff3a00cf
:100974003c68ef0001003700000000003dc8bf00e4
:10098400e14f50000d003a004052200000000100e9
:1009940010c0b3003de8b700ccff070001003700ea
:1009a400000000003cc8bf00e14f5000fcff3a00cb
:1009b4003c68ef003d68ef00b8ff07003dc8bf008a
:1009c400e24f50000d003a004052200000000100a8
:1009d40020c0b3003de8b700bcff070001003700aa
:1009e400000000003cc8bf00e14f5000fcff3a008b
:1009f4003c68ef003d68ef00a8ff07003dc8bf005a
:100a0400e34f50000d003a00405220000000010066
:100a140030c0b3003de8b700acff07000100370069
:100a2400000000003cc8bf00e14f5000fcff3a004a
:100a34003c68ef003d68ef0098ff07000080fa0073
:100a4400000006000000fa00c0418000501db10003
:100a5400c041880040c0b3003de8b700a9ff0700cb
:100a640001003700000000003cc8bf00e14f500007
:100a7400fcff3a003c68ef00c0418000501db0000c
:100a8400c041880085ff07000080fa0000000600ce
:100a94000000fa00c0418000801bb100c041880002
:100aa40040c0b3003de8b70088ff070001003700ed
:100ab400000000003cc8bf00e14f5000fcff3a00ba
:100ac4003c68ef003d68ef00c0418000801bb0002f
:100ad400c041880071ff07000080fa000000060092
:100ae4000000fa00c04180004006b000c041880008
:100af40040c0b3003de8b70082ff070001003700a3
:100b0400000000003cc8bf00e14f5000fcff3a0069
:100b14003c68ef003d68ef00c04180004006b10032
:100b2400c04188005dff07000080fa000000060055
:100b34000000fa0010c0b30070e8b70001003700ed
:100b4400000000003dc8bf000004e00005003a00ba
:100b54003cc8bf00e14f5000f9ff3a003c68ef0089
:100b640001003700000000003dc8bf00e14f500005
:100b740009003a0055ff070001003700000000009b
:100b84003cc8bf00e14f5000fcff3a003c68ef0056
:100b94003d68ef0041ff07003dc8bf00e24f500031
:100ba40009003a0057ff0700010037000000000069
:100bb4003cc8bf00e14f5000fcff3a003c68ef0026
:100bc4003d68ef0035ff07003dc8bf00e34f50000c
:100bd40001003a003d68ef000080fa0000000600c2
:100be4000000fa0047ff07008032220017050700c3
:100bf40036ff07008032220014050700f9ff370092
:100c04000000fa00c0418000d007b000c041880055
:100c140040c0b3003de8b7002cff070001003700d7
:100c2400000000003cc8bf00e14f5000fcff3a0048
:100c34003c68ef003d68ef00c0418000d007b10080
:100c4400c041880015ff07000080fa00000006007c
:100c54000000fa00c0418000d008b100c041880003
:100c640040c0b3003de8b7007168ef0025ff0700fe
:100c740001003700000000003cc8bf00e14f5000f5
:100c8400fcff3a003c68ef003d68ef00c041800083
:100c9400d008b000c041880000ff0700401f2000ba
:100ca400ea04070010c0b300a901070001003700df
:100cb400000000006c01070071c8bf00e24f500043
:100cc40003003a007168ef001eff070005003700bb
:100cd40071c8bf00e14f5000f5ff3a007168ef00a2
:100ce400000000000080fa00000006000000fa0086
:100cf400c04180009018b100c041880040c0b300da
:100d04003de8b700fffe07000100370000000000c7
:100d14003cc8bf00e14f5000fcff3a003c68ef00c4
:100d24003d68ef00c04180009018b000c0418800c9
:100d3400dafe07000080fa00000006000200fa0054
:100d4400004f7800c04180005009b100c0418800c4
:100d540040c0b3003de8b700dcfe070001003700e7
:100d6400000000003cc8bf00e14f5000fcff3a0007
:100d74003c68ef003d68ef00c04180005009b000be
:100d8400c0418800c5fe0700401f2000af040700d3
:100d94001e4078006e0107000100370000000000cb
:100da4003101070071c8bf00e24f500002003a0051
:100db400e4fe07000500370071c8bf00e14f500092
:100dc400f6ff3a007168ef00000000000080fa00ae
:100dd400000006000200fa00004f7800c0418000c5
:100de4009018b100c041880040c0b3003de8b7008e
:100df400c4fe070001003700000000003cc8bf002b
:100e0400e14f5000fcff3a003c68ef003d68ef0002
:100e1400c04180009018b000c04188009ffe0700c8
:100e24001e4078004a010700401f20008704070085
:100e340001003700000000000b01070071c8bf006b
:100e4400e24f50000600320071c8bf00e14f50006d
:100e5400f8ff3a007168ef0000000000010037005d
:100e6400000000000080fa00000006000000fa0004
:100e7400c04180005009b100c041880040c0b300a7
:100e84003de8b70091fe07000100370000000000b4
:100e94003cc8bf00e14f5000fcff3a003c68ef0043
:100ea4003d68ef00c04180005009b000c041880097
:100eb4007afe07000080fa00000006000000fa0035
:100ec400c0418000501db100c041880040c0b30043
:100ed4003de8b7008bfe070001003700000000006a
:100ee4003cc8bf00e14f5000fcff3a003c68ef00f3
:100ef4003d68ef00c0418000501db000c041880033
:100f040066fe07000080fa00000006000200fa00f6
:100f14006187200091407800b0cab30080cf5000b0
:100f240012003a00d1ff070030c0b300004f780030
:100f3400080037001e407800a6ff07004006200086
:100f440042040700c9ff0700400620003f040700d1
:100f54001e4fe8001e407800e94f5000f5ff3600b0
:100f640078fe0700cbc2a900150037006187200076
:100f740091407800a0cbb30080cf500010003a001d
:100f840030c0b300004f7800080037001e407800de
:100f94006aff0700400620002c04070053ff0700e7
:100fa40040062000290407001e4fe8001e40780078
:100fb400e94f5000f5ff360062fe0700cbc2a900de
:100fc4000080fa00000006000000fa00c362a800d6
:100fd40000000000400620001c040700cba2a8006b
:100fe4000000000040062000180407000080fa00fa
:100ff400000006000000fa00c362a900000000001f
:101004004006200011040700cba2a9000000000044
:10101400400620000d0407000080fa0000000600ce
:101024000200fa00004f7800c0418000501db1005a
:10103400c041880040c0b3003de8b70023fe07006c
:1010440001003700000000003cc8bf00e14f500021
:10105400fcff3a003c68ef003d68ef00c0418000af
:10106400501db000c041880036fe07001e407800c5
:10107400b700070001003700000000007a000700f5
:1010840071c8bf00e24f500002003a00a8fe0700fa
:101094000500370071c8bf00e14f5000f6ff3a0069
:1010a4007168ef00000000000080fa0000000600f4
:1010b4000200fa00004f78001e80fb002011880017
:1010c400000000001111800000102000008060006a
:1010d4000000e000fbff32000080fa000000060080
:1010e4000000fa00010037000000000044c8bf00ff
:1010f400e14f5000fcff3a0044c8bf00e14f5000ec
:1011040057003a004468ef002185200091407800a0
:10111400a0cab30080cf500051003a0031852000ae
:101124009140780050c5b30080cf50004c003a0085
:10113400618520009140780060c5b30080cf5000e5
:1011440023003a005268ef005368ef005468ef0040
:101154005568ef005668ef004c28ef0010c0b3004c
:1011640070e8b70001003700000000003dc8bf0070
:101174000004e00005003a003cc8bf00e14f500005
:10118400f9ff3a003c68ef0001003700000000005e
:101194009bfe0700aefe070071c8bf00e24f50007f
:1011a40002003a007168ef000900370020002000b7
:1011b40008ff070071c8bf00e24f500002003a0068
:1011c4007168ef000200370050ff070000000000c4
:1011d400618520009140780080c5b30080cf500025
:1011e40007003a005268ef005368ef005468ef00bc
:1011f4005568ef005668ef0010c0b30071e8b700ff
:10120400618520009140780090c5b30080cf5000e4
:1012140007003a005268ef005368ef005468ef008b
:101224005568ef005668ef0020c0b30071e8b700be
:10123400618520009140780000c6b30080cf500043
:1012440007003a005268ef005368ef005468ef005b
:101254005568ef005668ef0020c0b30071e8b7008e
:101264000080fa00000006000000fa0001003700c8
:101274000000000044c8bf00e14f5000fcff3a00ea
:1012840044c8bf00e14f50002f003a004468ef000b
:101294002185200091407800a0cab30080cf50007f
:1012a40029003a00318520009140780050c5b300f0
:1012b40080cf500024003a006185200091407800de
:1012c40080c5b30080cf500007003a005268ef0099
:1012d4005368ef005468ef005568ef005668ef005c
:1012e40010c0b30071e8b700618520009140780018
:1012f40090c5b30080cf500007003a005268ef0059
:101304005368ef005468ef005568ef005668ef002b
:1013140020c0b30071e8b7006185200091407800d7
:1013240000c6b30080cf500007003a005268ef00b7
:101334005368ef005468ef005568ef005668ef00fb
:1013440020c0b30071e8b7000080fa000000060076
:101354000200fa00004f780050c5b30054ff0700a4
:101364001000200039030700a0cab30050ff070093
:10137400100020003503070010c0b3004cff070025
:1013840010002000310307001e40780048ff0700ca
:10139400100020002d030700b0cab30044ff07006b
:1013a40010002000290307000080fa000000060056
:1013b4000000fa0050c5b3003dff070010002000f4
:1013c40022030700a0cab30039ff07001000200061
:1013d4001e03070020c0b30035ff070010002000e3
:1013e4001a0307000040eb0031ff07001000200043
:1013f40016030700c0cab3002dff07001000200029
:10140400120307000080fa00000006000000fa0042
:1014140050c5b30026ff0700100020000b0307008f
:10142400a0cab30022ff0700100020000703070032
:1014340030c0b3001eff07001000200003030700a4
:101444000040eb001aff070010002000ff02070015
:10145400d0cab30016ff070010002000fb020700eb
:101464000080fa00000006000000fa0050c5b30036
:101474000fff070010002000f4020700a0cab30009
:101484000bff070010002000f002070030c0b3007b
:1014940007ff070010002000ec0207000040eb00eb
:1014a40003ff070010002000e802070000cab30091
:1014b400fffe070010002000e40207000080fa008d
:1014c400000006000000fa0050c5b300f8fe070053
:1014d40010002000dd020700a0cab300f4fe0700dc
:1014e40010002000d902070040c0b300f0fe07003e
:1014f40010002000d502070010c0b300ecfe070066
:1015040010002000d1020700e0cab300e8fe070083
:1015140010002000cd0207000080fa000000060041
:101524000000fa0050c5b300e1fe070010002000df
:10153400c6020700a0cab300ddfe070010002000a9
:10154400c202070040c0b300d9fe0700100020000b
:10155400be02070000c8b300d5fe0700100020003b
:10156400ba020700e0cab300d1fe07001000200051
:10157400b60207000080fa00000006000000fa002e
:1015840042c8bf00e14f500005003a0040fd07008b
:101594004268ef0010c0b30072e8b70007003700dc
:1015a40043c8bf00e14f500004003a004cfd07005f
:1015b4004368ef0010c0b30072e8b7000080fa007f
:1015c400000006000000fa0069c8bf000080fb00ac
:1015d400e20f500014003200e20f500003003c0000
:1015e400e10f5000060032007b003700e30f50008b
:1015f40030003200e40f5000500032007600370013
:1016040062c8bf00e14f500004003a0010c0b300ac
:101614005ce8b7006268ef006f003700f50107006f
:10162400bd0007006c00370063c8bf000004e00081
:1016340017003a0050168000680060000000e000c7
:101644000c003a005dc8bf000004e0005d003a00f1
:1016540010c0b3005de8b700d222a800000000006b
:1016640094e0a800ca22a800000000000028ef00af
:10167400590037005d68ef00d222a9000000000085
:1016840094e0a90010c0b30063e8b700520037002b
:1016940030c0b30069e8b7006168ef005c68ef0030
:1016a4004668ef006868ef005000200067020700fa
:1016b4004900370064c8bf000004e00017003a0086
:1016c40090168000610060000000e0000c003a0009
:1016d4005dc8bf000004e0003c003a0010c0b30045
:1016e4005de8b700d222a8000000000094e0a80042
:1016f400ca22a900000000000028ef0036003700cd
:101704005d68ef00d222a9000000000094e0a90067
:1017140010c0b30064e8b7002f00370068c8bf00ea
:10172400e14f500002003a002d0007002a00370064
:1017340040c0b30069e8b7002700370065c8bf00a0
:101744000004e00017003a00901680006200600078
:101754000000e0000c003a005dc8bf000004e00097
:101764001c003a0010c0b3005de8b700d222a80004
:101774000000000094e0a800ca22a80000000000b5
:101784000028ef00140037005d68ef00d222a900a2
:101794000000000094e0a90010c0b30065e8b700a1
:1017a4000d00370068c8bf000004e00002003a00e2
:1017b4000b0007000800370030c0b30069e8b70029
:1017c400050037000000000003003700000000009f
:1017d40001003700000000000080fa00000006004d
:1017e4000000fa0046c8bf00e14f500026003a004e
:1017f4004668ef005e68ef0061c8bf000040e80083
:1018040061e8b7000428ef0069c8bf00e44f500046
:101814000a003a0068c8bf000004e00007003a006c
:1018240010c0b30068e8b7006468ef006568ef00b3
:1018340030c0b30069e8b7000a00370069c8bf00c8
:10184400e34f500007003a0068c8bf00e14f500062
:1018540004003a006468ef006568ef0040c0b3001c
:1018640069e8b70061c8bf00e84f500021003600a6
:101874006268ef0010c0b30069e8b700c362a90052
:10188400000000001b0037005ec8bf000004e00039
:101894000a003a00b1cab30010c0b3009f010700a8
:1018a40010c0b3005ee8b700c362a80000000000e7
:1018b4000428ef006b68ef000e0037006bc8bf0010
:1018c400e24f50000b003e00214080004006200003
:1018d400808f5000070036000428ef00b1cab3001f
:1018e40010c0b3008d0107006bc8bf000040e800c2
:1018f4006be8b7002140800000a62e00808f5000c6
:10190400030036000428ef0010c0b30060e8b700fd
:101914000080fa00000006000000fa0066c8bf005c
:101924000004e00016003a00901680006400600095
:101934000000e0000c003a005dc8bf000004e000b5
:101944000f003a0010c0b3005de8b700d222a8002f
:101954000000000094e0a800ca22a90000000000d2
:101964000028ef00060037005d68ef00d222a900ce
:101974000000000094e0a90010c0b30066e8b700be
:1019840066c8bf00e14f50001a003a0050168000ac
:10199400640060000000e0000c003a005dc8bf0075
:1019a4000004e00013003a0010c0b3005de8b70083
:1019b400d222a8000000000094e0a800ca22a800d7
:1019c400000000000028ef000a0037005d68ef0007
:1019d400d222a9000000000094e0a90010c0b300c6
:1019e40062e8b70010c0b30067e8b70020c0b300d6
:1019f40069e8b7000080fa00000006000000fa0061
:101a04005fc8bf00e14f50000300320060c8bf0050
:101a1400e14f500014003a006ac8bf00e24f500082
:101a24000d003e0011408000803e2000808f500059
:101a34000d0036000228ef00e1cab30040c0b30035
:101a4400360107006ac8bf000040e8006ae8b70032
:101a54000428ef00040037006a68ef00e50007007f
:101a64005c68ef004768ef000080fa0000000600a1
:101a74000000fa00c342a900c362a900e03e2f009f
:101a840000168800e024ef0000df290050168800cb
:101a9400cba2a90000df2900401688000001200025
:101aa40010278800f0f72f0090168800d202a900b2
:101ab400d222a900d302a900c0e72f008016880013
:101ac400e424ef000080fa00000006000000fa00a1
:101ad4000421ef000021ef0000f421001008880029
:101ae4008460a9009460a80005e1a9000080fa00c0
:101af400000006000000fa001021ef000621ef00ac
:101b040081088000f0fc2f000080600080088800bd
:101b1400803222006008880084e0a90094e0a900d3
:101b240011e1a9000080fa00000006000000fa009c
:101b34001221ef000a21ef0091088000f0fc2f0031
:101b44000080600090088800001920007008880058
:101b54008500a9009500a90013e1a9000080fa00fe
:101b6400000006000000fa001e21ef001421ef001f
:101b7400f1088000f0fc2f0000806000f00888006d
:101b8400e0032000d00888008760a9009760a900be
:101b94001fe1a8000080fa00000006000000fa001f
:101ba400a421ef00210d8000f03f2e000080600092
:101bb400200d880070002000200d8800310d800069
:101bc40000fe2f0000806000c000b300300d8800cc
:101bd40000fa2000500d880080322200400d880059
:101be4000080fa00000006000000fa007080200067
:101bf400d00c8800e10c800000fe2f000080600003
:101c0400e000b300e00c8800e0032000000d880031
:101c140020032000f00c88000080fa000000060079
:101c24000000fa003200200080072000a1092000f3
:101c34003374200080497800814978008249780013
:101c4400120020006004200071052000237420008d
:101c540080497800814978008249780000000000ba
:101c6400113a8000000027008080600000002300fb
:101c7400808f5000faff3a0000000000103a800004
:101c8400610060000000e000fcff3a000080fa0000
:101c9400000006000400fa0040a7a900013a8000f1
:101ca4001107980000002200003a8800dcff0700ba
:101cb4000000eb00000f7800000000001e00780018
:101cc40000f0a7000000ea000000ea004f00de0078
:101cd400004078001e0fe8000004e000f7ff3a001f
:101ce4001e0090000080fa00000006000000fa00c8
:101cf40030032000401188002022ef002062a90058
:101d04000111800090ff2f00008060000011880006
:101d14002002a90011118000f0f32f000080600060
:101d24001011880023e2a90023a2a8008560a9005d
:101d34008580a9009580a9009560a80021e2a800eb
:101d44002342a8000080fa00000006000000fa0008
:101d54004023ef004043a800011a8000f0f02f0058
:101d6400808060000007200001007000001a8800d5
:101d7400111a8000f0ff230000806000101a880010
:101d840043a3a9004343a900111a800030f82f008f
:101d940000806000101a8800211a8000f00f2e00c5
:101da4000080600000a0a000201a880070c0b3006a
:101db40044e3b700411a800000fe2f000080600059
:101dc400f000b300401a880000082000801a880040
:101dd40085a0a90095a0a800e024ef000001200040
:101de40010278800e424ef0041e3a8000080fa00f3
:101df400000006000000fa005d68ef005f68ef0075
:101e04005e68ef006068ef006268ef006368ef00ef
:101e14006468ef006568ef006668ef006768ef00cc
:101e24006868ef006168ef004568ef004a68ef00fa
:101e34004868ef004968ef000228ef000028ef002f
:101e44000428ef000080fa00000006000000fa00f9
:101e540090ff0700a0438800bcff07001bff07009a
:101e640032ff07003fff0700a0ff07005eff0700e7
:101e7400e0342000c0418800c0418000d020b1007f
:101e8400f04188000080fa00000006000000fa001b
:101e940044c8bf00e14f50001e003a004468ef0000
:101ea40054c8bf00e14f500006003a005cc8bf00b0
:101eb4000004e00003003a0010c0b30045e8b70096
:101ec4001400370054c8bf00e34f500006003a0026
:101ed40064c8bf00e14f500003003a0010c0b300d3
:101ee40046e8b7000b00370054c8bf00e44f500069
:101ef40003003a0010c0b30047e8b70005003700fc
:101f040054c8bf00f04f400002003a0010c0b300b4
:101f14004ae8b7000080fa00000006000200fa0058
:101f2400004f7800114798004e28ef0050c5b300c9
:101f340057e8b700a0cab30058e8b7001e417800bc
:101f440091852000824878005a68ef001e41900075
:101f5400b18520008248780060c8bf00e14f50007e
:101f640002003a0010c0b3005ae8b7005fc8bf00cf
:101f7400e14f500002003a0000c8b3005ae8b7002d
:101f84002342a8000080fa00000006000000fa00c6
:101f94000080fa00000006000000fa0010c0b30040
:101fa4006de8b7006dc8bf00e14f500003003a0070
:101fb40010c0b3006ee8b7006d68ef006ec8bf00d4
:101fc400e14f500002003a0010c0b3006ce8b700c3
:101fd4006cc8bf00e14f500011003a0067c8bf0051
:101fe400e14f50000e003a0045c8bf000004e00075
:101ff4000b003a005cc8bf000004e00008003a008f
:1020040011408000803e2000808f50000400360084
:102014000228ef00d1cab30030c0b300bfff0700ed
:102024000080fa00000006000200fa00000f7800a9
:10203400010037001e0fe9001e0078000000e000d8
:10204400fcff3a000080fa00000006000600fa00d7
:10205400200798000000eb00000f78000b00370009
:102064000000eb0010079800030037001e009000ea
:102074000000e800100798009e009000f063200024
:10208400808f5000f9ff36001e0fe8002e009000ec
:102094009e007800808f5000f1ff39000080fa0024
:0420a4000000060032
:020000040000fa
:1020a8005c08000010000000000000007408000038
:1020b80002000000000000000008000044000000ca
:1020c80000000000440800001800000000000000a4
:1020d8006c08000004000000000000007008000008
:1020e8000400000000000000760800000200000064
:0820f8000000000000000000e0
:020000040000fa
:102100000000fa005bfe0700c6f9070050ff070059
:1021100079fe0700a2fe070011e1a80018fd0700e4
:10212000e0012000caff070007fa0700b8fc07001b
:0c213000a6fb0700ebfb0700feff3700da
:020000040000fa
:0200000401f009
:04000c00c30000002d
:020000040000fa
:0200000401f009
:040010007500000077
:020000040000fa
:0200000401f009
:04001400d6ff000013
:020000040000fa
:0200000401f009
:04001800ffff0000e6
:020000040000fa
:0200000401f009
:04001c00820000005e
:00000001FF
